:020000040000FA
:040000008A01102839
:08000800A00003088312A1000F
:100010008C1AA921831221088300A00E200E09004A
:10002000BF21D2219A211B2039209E20A520AC205F
:10003000B3201428080060220130AA006E22053087
:100040006B220A30AA006E22442260221030AA00DD
:100050006E226B221B30AA006E22442260222630C0
:10006000AA006E226B223130AA006E224422602246
:100070000800B001FF30B1000310B10C3108860058
:10008000861D4F28B00A061D4F28B00A861C4F282F
:10009000B00A061C4F28311E0800B00A3D28861DF4
:1000A0004F28061D5128861C5328061C5528300849
:1000B0000311003C031D5D28762830080311013C24
:1000C000031D6328802830080311023C031D6928A2
:1000D0008A2830080311033C031D6F289428300838
:1000E0000311043C031D752813280800371C7A28C7
:1000F00037107B2837145030962130309621080075
:10010000B71C8428B7108528B71450309621313099
:1001100096210800371D8E2837118F28371550304B
:100120009621323096210800B71D9828B7119928DA
:10013000B71550309621333096210800C1309F000A
:10014000BA201E08B50000290800C9309F00BA2057
:100150001E08B50020290800D1309F00BA201E08D3
:10016000B50040290800D9309F00BA201E08B5000C
:10017000602908000F30AA00AA0BBC289E011F1599
:100180001F19C0281F1008003030962130309621EA
:10019000303096213030962130309621F0283030A2
:1001A00096213030962130309621303096213030F3
:1001B0009621F0283030962130309621303096212B
:1001C0003030962130309621F02830309621303072
:1001D0009621303096213030962130309621F0280B
:1001E0003030A50018222030A50018223030A5009C
:1001F00018223030A50018223030A500182208003F
:1002000000306822371C05290729C420080035085A
:10021000802141309621A50018222030A500182207
:100220002B08303E9621A50018222C08303E96213E
:10023000A50018222D08303E9621A500182208009E
:1002400008306822B71C25292729CF200800350847
:10025000802142309621A50018222030A5001822C6
:100260002B08303E9621A50018222C08303E9621FE
:10027000A50018222D08303E9621A500182208005E
:1002800000306B22371D45294729DA200800350840
:10029000802143309621A50018222030A500182285
:1002A0002B08303E9621A50018222C08303E9621BE
:1002B000A50018222D08303E9621A500182208001E
:1002C00008306B22B71D65296729E520080035082D
:1002D000802144309621A50018222030A500182244
:1002E0002B08303E9621A50018222C08303E96217E
:1002F000A50018222D08303E9621A50018220800DE
:10030000AE00AB01AC01AD0164302E02031C8B29A1
:10031000AE00AB0A84290A302E02031C9229AE00DB
:10032000AC0A8B292E08AD00AE0108000C1E9629E0
:10033000990008008316031326309800193099009D
:100340008C1683120313903098008C018B170B17B7
:1003500008008C1E08001A08B800B40031303802BA
:1003600003197628323038020319802833303802D6
:1003700003198A2834303802031994280800831698
:10038000031302309F000F3085000F30860080304D
:100390008700890183120313850186018701890182
:1003A000B701080007128711871240220330EF219E
:1003B0003B220330EF213E220330EF213E22023068
:1003C000EF213E222830A500F7210130A500F721BA
:1003D0000630A500F7210E30A500F721080089009E
:1003E000851287164222871289018512080087121A
:1003F00087110712250EA50025080F398900B300C3
:10040000B31D042A8516052A8512871642228712F3
:10041000250EA50025080F398900B300B31D122A47
:100420008516132A8512871642228712071608009E
:1004300087150712250EA50025080F398900B3007E
:10044000B31D242A8516252A851287164222871273
:1004500087118715250EA50025080F398900B300DF
:10046000B31D342A8516352A851287164222871233
:1004700087110716080000004030462A0330462A3C
:1004800014304A2A05304A2A0A30532AA700A70BFB
:10049000472A0800A800F930A7000000A70B4D2A42
:1004A000A80B4B2A0800A9006430A800F930A70067
:1004B0000000A70B582AA80B562AA90B542A08009B
:1004C0000130A500F72108008030A500F7210800C1
:1004D0008038A500F729C038A500F72904308A0024
:1004E0002A080024003E03190800A5001822AA0AC1
:0204F0006E2A72
:100800008200503452344F345934453443345434D4
:100810004F340034463449344E3441344C3400347F
:100820002034423474346E34203431342034203453
:100830004334313400342034423474346E34203440
:1008400032342034203443343234003420344234BF
:1008500074346E342034333420342034433433340D
:1008600000342034423474346E3420343434203430
:08087000203443343434003419
:00000001FF
